:020000040800F2
:1000000000000120C90400081105000811050008BE
:100010001105000811050008110500080000000086
:1000200000000000000000000000000011050008B2
:100030001105000800000000110500081105000866
:100040001105000811050008110500081105000838
:100050001105000811050008110500081105000828
:100060001105000811050008110500081105000818
:100070001105000811050008110500081105000808
:1000800011050008110500081105000811050008F8
:1000900011050008110500081105000811050008E8
:1000A00011050008110500081105000811050008D8
:1000B00011050008110500081105000811050008C8
:1000C00011050008110500081105000811050008B8
:1000D00011050008110500081105000811050008A8
:1000E00011050008110500081105000800000000B6
:1000F0000000000000000000000000000000000000
:1001000000000000000000001105000811050008B3
:100110001105000811050008110500081105000867
:100120001105000811050008110500081105000857
:100130001105000811050008110500081105000847
:100140001105000811050008110500081105000837
:10015000000000000000000000000000000000009F
:10016000000000000000000000000000000000008F
:10017000000000000000000000000000000000007F
:10018000000000000000000000000000000000006F
:10019000000000000000000000000000000000005F
:1001A000000000000000000000000000000000004F
:1001B000000000000000000000000000000000003F
:1001C000000000000000000000000000000000002F
:1001D000000000000000000000000000000000001F
:0401E0005FF8E0F1F3
:1001E40003B47146490840004900095E49008E4441
:1001F40003BC7047002243088B4274D303098B422B
:100204005FD3030A8B4244D3030B8B4228D3030CE2
:100214008B420DD3FF22090212BA030C8B4202D384
:100224001212090265D0030B8B4219D300E0090AAC
:10023400C30B8B4201D3CB03C01A5241830B8B42B5
:1002440001D38B03C01A5241430B8B4201D34B039E
:10025400C01A5241030B8B4201D30B03C01A524103
:10026400C30A8B4201D3CB02C01A5241830A8B4288
:1002740001D38B02C01A5241430A8B4201D34B0271
:10028400C01A5241030A8B4201D30B02C01A5241D5
:10029400CDD2C3098B4201D3CB01C01A5241830989
:1002A4008B4201D38B01C01A524143098B4201D3C3
:1002B4004B01C01A524103098B4201D30B01C01AEE
:1002C4005241C3088B4201D3CB00C01A5241830868
:1002D4008B4201D38B00C01A524143088B4201D395
:1002E4004B00C01A5241411A00D2014652411046F5
:1002F4007047FFE701B5002000F006F802BDC046D4
:100304000029F7D076E770477047C04610B5064C11
:100314002378002B07D1054B002B02D00448AFF300
:1003240000800123237010BD5C0000200000000049
:1003340094140008044B10B5002B03D0034904485F
:10034400AFF3008010BDC046000000006000002034
:10035400941400087047E1231B0600221A607047BA
:10036400E1231B0603221A607047E1231B060022C7
:100374001A607047E1231B065860996070470000BB
:1003840070B5204800F0EEF9FFF7E5FFFFF7E8FF4E
:100394001D4800F0E7F98024640205E01B4BE118D6
:1003A4002000FFF7E7FF043482235B029C42F5D36D
:1003B400FFF7DBFF164800F0D5F9164800F0D2F934
:1003C4000024002500E00434C8235B009C420DD2C5
:1003D400114BE21880235B02E3181B689A42F2D0A7
:1003E4000E48210000F058F90135ECE7002D03D147
:1003F4000B4800F0B7F9FEE70A48290000F04CF971
:10040400F9E7C046AC140008C8140008EFBEADDE1E
:10041400E414000800150008EFBEAEDE1C15000849
:10042400501500089415000810B503000C4A0D4936
:10043400521A0D490968002907D00B490868C318E6
:10044400934206D8084A136010BD0749074808605C
:10045400F3E700F0D3FA0C23036001204042F3E7F2
:10046400000001200004000078000020C8010020E2
:1004740001204042704780239B014B60002070475D
:10048400012070470020704730B50020084B1C68DD
:100494005B689C420BD0064C2368064DAC46634413
:1004A4001B780B540123236001308242EED130BD0E
:1004B400001000E0001100E01000E0231B061960AA
:1004C4005A607047FFF746FF0B480C490C4A00235B
:1004D40002E0D458C4500433C4188C42F9D3094AF6
:1004E400094C002301E013600432A242FBD300F064
:1004F4008BFAFFF745FF7047000000205C000020E6
:10050400FC1500085C000020C8010020FEE7000084
:10051400002310B504000360436083608181436657
:10052400C281036143618361190008225C3000F0D9
:100534000FFA0B4B246263620A4BA3620A4BE36219
:100544000A4B23630A4B9C4205D00A4B9C4202D0BF
:10055400094B9C4203D12000583000F079FA10BDB9
:100564007D070008A5070008DD0700080908000842
:100574007C000020E40000204C01002010B5034A58
:100584000349044800F06CF810BDC0460000002088
:10059400E11200081000002041680B4B10B5040064
:1005A400994201D000F09AFEA168084B994202D00A
:1005B400200000F093FEE168054B994202D0200030
:1005C40000F08CFE10BDC0467C000020E40000203A
:1005D4004C01002010B5094B094A04211A6009484E
:1005E4000022FFF795FF012209210748FFF790FF3A
:1005F400022212210548FFF78BFF10BDB401002031
:10060400810500087C000020E40000204C0100204B
:1006140010B5024800F01DFA10BDC046BD0100200F
:1006240010B5024800F016FA10BDC046BD01002006
:1006340010B50400FFF7ECFF236A002B02D0FFF78C
:10064400EFFF10BD044B2362044B1B68002BF6D153
:10065400FFF7C0FFF3E7C0469D050008B401002082
:10066400F7B51400002600900191A5686768013F62
:1006740004D52468002CF8D13000FEBDAB89012BD1
:1006840008D90E22AB5E013304D029000098019BE7
:10069400984706436835EAE70FB407B5054904AB44
:1006A400086804CB8168019300F0FAFA03B008BC2F
:1006B40004B018470C000020036A70B505000E0052
:1006C4008468002B01D1FFF7B3FF636EDB0705D409
:1006D400A3899B0502D4A06D00F0BBF9A3891B0775
:1006E40002D52369002B1FD12100280000F0D2F885
:1006F400002819D001256D42636EDB0705D4A38958
:100704009B0502D4A06D00F0A5F9280070BD013648
:10071400A360002B04DAA2699A4216DC0A2914D0D9
:1007240023685A1C22601970A3683178013B0029A0
:10073400EDD1A360002B0FDA220028000A3100F06B
:1007440067F80130D6D00A25D6E72200280000F049
:100754005FF80130E8D1CDE723685A1C22600A22F1
:100764001A70F0E710B5034B01001868FFF7A4FFF7
:1007740010BDC0460C00002070B50C000E25495F6A
:1007840000F014F9002803DB636D1B18636570BD6A
:10079400A389024A1340A381F9E7C046FFEFFFFF94
:1007A400F8B51F008B8905000C001600DB0505D584
:1007B4000E23C95E0022022300F0E4F8A389054A4F
:1007C40028001340A38132000E23E15E3B0000F0B9
:1007D40001F9F8BDFFEFFFFF70B50C000E25495F6E
:1007E40000F0D0F8A389421C03D1054A1340A38129
:1007F40070BD802252011343A3816065F8E7C046AF
:10080400FFEFFFFF10B50E23C95E00F0A9F810BD7D
:10081400F8B506000D001400002804D0036A002B6C
:1008240001D1FFF705FFA369A360A3891B0702D5C4
:100834002369002B09D12100300000F02BF8002897
:1008440003D001256D422800F8BD23692068EFB26A
:10085400C01A6369EDB2834205DC2100300000F068
:100864003DFD0028EDD1A3680130013BA36023685E
:100874005A1C22601F706369834204D0A389DB077A
:10088400E1D50A2DDFD12100300000F027FD00283A
:10089400D9D0D6E72D4B70B5050018680C00002898
:1008A40004D0036A002B01D1FFF7C2FE0C22A35E21
:1008B4001A0723D4DA0607D409222A604022012029
:1008C4001343A38140423AE05B0713D5616B0029CF
:1008D40008D023004433994202D0280000F0BCF829
:1008E400002363632422A3899343A38100236360C9
:1008F400236923600823A2891343A3812369002B5E
:100904000BD1A0218022A389890092000B4093423D
:1009140003D02100280000F037FD0C22A35E012142
:100924001A000A400B420BD00022A26062695242B4
:10093400A26100202269824201D11A06BED470BD90
:10094400990700D46269A260F3E7C0460C00002056
:1009540003008218934200D1704719700133F9E7FC
:10096400002370B5064D040008002B60FFF780FDDE
:10097400431C03D12B68002B00D0236070BDC046FC
:10098400B801002070B50400080011001A0000230B
:10099400054D2B60FFF776FD431C03D12B68002B1C
:1009A40000D0236070BDC046B801002070B50400BB
:1009B400080011001A000023054D2B60FFF764FDA9
:1009C400431C03D12B68002B00D0236070BDC046AC
:1009D400B801002070B50400080011001A000023BB
:1009E400054D2B60FFF768FD431C03D12B68002BDA
:1009F40000D0236070BDC046B8010020014B1868C8
:100A04007047C0460C00002070B500260C4C0D4DFC
:100A1400641BA410A64209D1002600F039FD0A4C3B
:100A24000A4D641BA410A64205D170BDB300EB5857
:100A340098470136EEE7B300EB5898470136F2E7E2
:100A4400F4150008F4150008F8150008F41500085A
:100A5400704770477047000070B505000C1E10D039
:100A6400043C2368002B00DAE418280000F0E0F8C6
:100A74001D4A1368002B05D163601460280000F040
:100A8400DFF870BDA34208D9206821188B42F3D146
:100A940019685B6809182160EEE71A005B68002B8F
:100AA40001D0A342F9D911685018A0420BD1206893
:100AB4000918501811608342E0D118685B68411826
:100AC40011605360DAE7A04202D90C232B60D5E70A
:100AD400206821188B4203D119685B6809182160CA
:100AE40063605460CAE7C046C401002070B50F4E6D
:100AF4000D0031680400002902D100F0ABFC306025
:100B04002900200000F0A6FC431C03D101256D42FE
:100B1400280070BD0323C51C9D43A842F8D0291AA0
:100B2400200000F097FC0130F2D1EFE7C001002073
:100B3400F7B50322CB1C9343083305001F000C2B8D
:100B440034D20C27B94233D8280000F071F8374E5C
:100B540033681C00002C2FD139002800FFF7C6FF92
:100B64000400431C5FD134680094009B002B4AD1DD
:100B7400002C52D023682800E3180099019300F058
:100B840069FC019B834248D123682800FF1A39007D
:100B9400FFF7ACFF013040D02368DB1923603368D2
:100BA4005A68002A33D1009B336019E0002BC9DA5C
:100BB4000C232B600020FEBD2168C91B20D40B2907
:100BC4000AD9E2192760A34204D132606368116034
:100BD400536005E05A60F9E76268A3420ED13260BF
:100BE400280000F02DF8200007220B30231D90432D
:100BF400C21A9842DFD01B1AA350DCE75A60EFE711
:100C040023006468A6E7009C63680093ADE71A00BC
:100C14005B68A342FBD10023DAE70C2328002B6096
:100C240000F00EF8C6E70760DAE7C046C40100200A
:100C340010B50248FFF70DFF10BDC046BC010020EF
:100C440010B50248FFF706FF10BDC046BC010020E6
:100C5400936810B5013B9360002B04DA9469A342B6
:100C640007DB0A2905D01368581C106019700800A6
:100C740010BDFFF7CDFD0100F9E7F8B506000F0040
:100C84001400D518AC4201D1002007E021783A00C5
:100C94003000FFF7DDFF0134431CF3D1F8BD000041
:100CA400F0B5A1B00F0015001E000390002804D079
:100CB400036A002B01D1FFF7BBFC7B6EDB0705D475
:100CC400BB899B0502D4B86DFFF7C3FEBB891B0724
:100CD40002D53B69002B13D139000398FFF7DAFDE5
:100CE40000280DD07B6EDB0703D50120404221B0E4
:100CF400F0BDBB899B05F8D4B86DFFF7ABFEF4E7F4
:100D0400002308AC6361203363761033A37607961F
:100D14002E003378002B01D0252B48D1731B05936B
:100D2400AE420BD02A0039000398FFF7A6FF01302A
:100D340000D1AEE06369059A9B1863613378002B98
:100D440000D1A6E0012200235242626004A9543279
:100D54005218751C2360E360A3601370A365594B9C
:100D6400052218002978059300F086FB6E1C0028E4
:100D74001FD12268D30604D5532304A95B1820216C
:100D84001970130704D5532304A95B182B21197078
:100D94002B782A2B16D02E0000210A20E368327803
:100DA400751C303A092A50D9002911D117E00136AF
:100DB400AFE7059B2268C01A012383401343350023
:100DC4002360CCE7079B191D1B680791002B01DBEF
:100DD4000B9304E05B42E360022313432360337804
:100DE4002E2B0CD173782A2B34D1079B02361A1D73
:100DF4001B680792002B01DA01235B420993324DF1
:100E040003222800317800F037FB002806D0402365
:100E1400401B834022680136134323603178062245
:100E24002A48751C217600F027FB002840D0284B67
:100E3400002B22D10722079B0733934308330793E0
:100E44006369049A9B18636162E743432E0001219E
:100E54009B18A4E700230A20190001366360327846
:100E6400751C303A092A03D9002BC8D00991C6E76A
:100E740041432E0001238918F1E707AA00922100BB
:100E84003A00144B0398AFF300800490049B0133A1
:100E9400D6D17B6EDB0705D4BB899B0502D4B86D24
:100EA400FFF7D8FDBB895B0600D51EE70D981EE74A
:100EB40007AA009221003A00064B039800F07CF840
:100EC400E3E7C046C0150008C6150008CA150008A7
:100ED400000000007F0C0008F7B5160001938A6833
:100EE4000B690C000090934200DA13002200336077
:100EF40043321278002A01D00133336023689B0601
:100F040002D53368023333602268062315001D407E
:100F14001A4227D0230043331B785A1E9341226878
:100F2400920630D4220001990098089D4332A847C4
:100F3400013025D00622236800251340042B05D157
:100F44003368E568ED1AEB43DB171D40A36822699B
:100F5400934201DD9B1AED180026B54220D10020F2
:100F640010E00135E36832689B1AAB42D2DD2200FF
:100F7400012301990098089F1932B8470130F0D134
:100F840001204042FEBD3020E118433108702100A9
:100F94005A1C45310978A218433202331170C1E753
:100FA4002200012301990098089F1A32B8470130A2
:100FB400E6D00136D1E70000F0B58BB006920A0006
:100FC40043320793059003920A7E0C00109B782A03
:100FD40009D8622A0BD8002A00D1BAE07A490491D0
:100FE400582A00D18EE0250042352A7022E01000F4
:100FF40063381528F7D8FFF7F3F816001F00F6FF3B
:10100400F6FFF6FFF6FF1F00F6FFF6FFF6FFF6FF0A
:101014009F0036007E00F6FFF6FFB000F6FF3600B4
:10102400F6FFF6FF820025001A684235111D19608B
:1010340013682B7001239EE018680968021D0D06D1
:101044000BD506681A60002E03DA2D23039A764224
:1010540013705D4B0A27049318E006681A6049066A
:10106400F1D536B2EFE70868196840C9050602D41D
:10107400400600D5B6B21960534B0A2704936F2A71
:1010840000D1023F2300002243331A706368A36037
:10109400002B06DB04212268039D8A43226033432C
:1010A4000CD0039D30003900FFF72AF9049B013D61
:1010B4005B5C2B70330006009F42F3D9082F09D1E3
:1010C4002368DB0706D5626823699A4202DC302371
:1010D400013D2B70039B5B1B2361079B2100009345
:1010E4000598069B09AAFFF7F7FE013048D10120B5
:1010F40040420BB0F0BD202209680A4322607822E6
:1011040032490491210045310A701968226840C9A6
:10111400100602D4500600D5B6B21960D30702D522
:10112400202313432360002E01D01027AAE7202296
:10113400236893432360F8E71A680D68101D496912
:10114400186013682E0601D5196002E06D06FBD500
:1011540019800023039D2361BFE71A68111D1960DC
:10116400156800212800626800F086F9002801D083
:10117400401B6060636823610023039A1370ACE72B
:101184002A00236906990598079DA8470130AED027
:1011940023689B0715D4099BE0689842A9DA1800D4
:1011A400A7E72200012306990598079E1932B04744
:1011B40001309CD00135E368099A9B1AAB42F0DCFC
:1011C400E9E70025F7E7C046D1150008E215000855
:1011D400F7B50C228B5E05000C001A0756D44A683A
:1011E400002A02DC0A6C002A4EDDE76A002F4BD08D
:1011F400002280202E682A601A004001216A0240E1
:10120400034233D0626DA3895B0706D56368D21AA3
:10121400636B002B01D0236CD21A00232800E76AE9
:10122400216AB847A289431C06D129681D2946D8DA
:10123400294BCB40DB0742D500236360236923603D
:10124400D20405D5431C02D12B68002B00D1606564
:10125400616B2E60002917D023004433994202D0D9
:101264002800FFF7F9FB002363630DE00123280046
:10127400B8470200431CC6D12B68002BC3D01D2BDA
:1012840001D0162B1AD12E6000201EE00E69002E0C
:10129400FAD00F680E60BA1B019200229B0700D19E
:1012A4004A69A260019B002BEEDDA36A32001F0095
:1012B4002800019B216AB847002807DCA289402343
:1012C400012013431BB2A3814042FEBD019B36188B
:1012D4001B1A0193E6E7C046010040200B6970B574
:1012E40005000C00002B02D10025280070BD002849
:1012F40004D0036A002B01D1FFF79AF90C22A35EF4
:10130400002BF1D0626ED20704D49B0502D4A06DE9
:10131400FFF79FFB28002100FFF75AFF636E0500CB
:10132400DB07E2D4A3899B05DFD4A06DFFF792FB12
:10133400DBE7000070B50E001D000E23C95E14002B
:1013440096B000290CDAB2898023110019401A42A0
:1013540014D18023DB0000202960236016B070BD07
:101364006A4600F053F80028EDDBF02301991B02D4
:101374001940044BC9184B425941EAE70021402364
:10138400E9E7C04600E0FFFFF0B502268B890500BF
:101394000C0085B0334207D0230047332360236118
:1013A4000123636105B0F0BD03AB02AAFFF7C2FFDE
:1013B400029F019039002800FFF7BAFB002808D1EA
:1013C4000C22A35E9A05EDD4032293431E43A68107
:1013D400E2E78023A28920601343A381039B206159
:1013E4006761002B0CD028000E23E15E00F020F88A
:1013F400002805D00323A2899A43023B1343A38107
:10140400A389019A1343A381CCE70000002370B59C
:10141400064D0400080011002B60FFF72CF8431C54
:1014240003D12B68002B00D0236070BDB8010020CD
:10143400002370B5064D040008002B60FFF720F868
:10144400431C03D12B68002B00D0236070BDC04621
:10145400B8010020002370B5064D040008002B607D
:10146400FEF7E2FF431C03D12B68002B00D023605E
:1014740070BDC046B8010020C9B28218904201D1A3
:101484000020704703788B42FBD00130F6E7000060
:10149400F8B5C046F8BC08BC9E467047F8B5C046CF
:0814A400F8BC08BC9E4670472D
:1014AC00466C6173682050726F6772616D6D696E06
:1014BC0067204578616D706C650000005772697427
:1014CC00696E67207061747465726E20746F20662B
:1014DC006C6173682E2E2E00466C617368207072DE
:1014EC006F6772616D6D696E6720636F6D706C658F
:1014FC0074650000566572696679696E672077724B
:10150C00697474656E20646174612E2E2E00000067
:10151C004572726F72206174206F666673657420F9
:10152C003078256C783A2065787065637465642032
:10153C003078256C782C20676F74203078256C7887
:10154C000A00000044617461207665726966696303
:10155C006174696F6E207375636365737366756C04
:10156C003A20416C6C2076616C756573206D6174EA
:10157C006368206578706563746564207061747449
:10158C0065726E732E000000446174612076657282
:10159C00696669636174696F6E206661696C656404
:1015AC003A202564206572726F727320666F756EB7
:1015BC00642E0A00232D302B2000686C4C006566CD
:1015CC006745464700303132333435363738394188
:1015DC00424344454600303132333435363738399E
:0815EC006162636465660000A2
:0415F40039030008AF
:0415F80011030008D3
:1015FC0000000000030000007C0000201000002010
:10160C00000000007C000020E40000204C010020C1
:10161C0000000000000000000000000000000000BE
:10162C0000000000000000000000000000000000AE
:10163C00000000000000000000000000000000009E
:0C164C0000000000000000000000000092
:04000005080004C922
:00000001FF
